:020000040800F2
:1000000000800220811C00087D1C00087B1C000869
:100010007B1C00087B1C00087B1C00080000000003
:100020000000000000000000000000007D1C00082F
:100030007D1C0008000000007D1C00084D0C00081D
:100040007B1C00087B1C00087B1C00087B1C000834
:100050007B1C00087B1C00087B1C00087B1C000824
:100060007B1C00087B1C00087B1C00087B1C000814
:100070007B1C00087B1C00087B1C00087B1C000804
:100080007B1C00087B1C00087B1C00087B1C0008F4
:100090007B1C00087B1C00087B1C00087B1C0008E4
:1000A0007B1C00087B1C00087B1C00087B1C0008D4
:1000B0007B1C00087B1C00087B1C00087B1C0008C4
:1000C0007B1C00087B1C00087B1C00087B1C0008B4
:1000D0007B1C00087B1C0008450A00087B1C0008EC
:1000E0007B1C00087B1C00087B1C00087B1C000894
:1000F0007B1C00087B1C00087B1C00087B1C000884
:100100007B1C00087B1C00087B1C00087B1C000873
:100110007B1C00087B1C00087B1C00087B1C000863
:100120007B1C00087B1C00087B1C00087B1C000853
:100130007B1C00087B1C00087B1C00087B1C000843
:100140007B1C00087B1C00087B1C00087B1C000833
:100150007B1C00087B1C00087B1C00087B1C000823
:100160007B1C00087B1C00087B1C00087B1C000813
:100170007B1C00087B1C00087B1C00087B1C000803
:100180007B1C00087B1C00087B1C00087B1C0008F3
:100190007B1C00087B1C00087B1C00087B1C0008E3
:1001A0007B1C00087B1C00087B1C000870B5044603
:1001B000837863F07F03837003886A2B47D06C2BAE
:1001C00069D033B1082383700023038003252846B8
:1001D00070BD3F4D4FF40071284601F0EBFB4FF42A
:1001E000007300220121284601F0F3FB394800F09A
:1001F000EDFB00264FF40061374801F0DEFB08B14B
:100200000136F6B24FF48061334801F0D6FB08B1F5
:100210000136F6B24FF400712F4801F0CEFB08B161
:100220000136F6B24FF480712B4801F0C6FB08B1DD
:100230000136F6B23EB34FF40071254801F0C0FB21
:1002400000F0FEFCA060E6606A23238000E0002648
:10025000A57815F004050DD1E168A06800F032FA28
:1002600060B1A37823F00103A370A37813F0010F0A
:10027000C0D0ACE70423A3700325A8E7A37843F01C
:100280000103A370F1E700F0DBFCA0606423E360EE
:100290006C23238000E00026A57815F004050DD11D
:1002A000E168A06800F00EFA60B1A37823F00103C2
:1002B000A370A37813F0010F9CD088E70423A370E8
:1002C000032584E7A37843F00103A370F1E700BF9F
:1002D00000080048801D00080004004838B50446A6
:1002E000837863F07F0383700388002B39D0942BCD
:1002F00026D008238370002303800325284638BDB9
:1003000002214FF0904001F055FB34E001214FF005
:10031000904001F04FFB38E08021254801F04AFB76
:10032000244A13780133DBB2137003F00703137010
:1003300000F086FCA0604FF47A73E360942323807E
:10034000A07810F004052AD1E168A06800F0BAF99D
:1003500048B3A37823F00103A370A37813F0010F2F
:10036000CCD1144B1B7813F0010FC9D002214FF0F0
:10037000904001F01DFB0F4B1B7813F0020FC5D00E
:1003800001214FF0904001F013FB0A4B1B7813F052
:10039000040FC1D08021064801F00AFBC0E7042306
:1003A000A3700325AAE7A37843F00103A370D4E761
:1003B000000800480C00002038B50446837863F03C
:1003C0007F0383700388A62B17D0B42B44D033B19E
:1003D00008238370002303800325284638BD304856
:1003E00000F0F4FA01F0FEF801F022F94FF4807108
:1003F0002C4801F0DDFAA6232380A57815F004052A
:100400003CD101F06DF900283CD0A37823F0010322
:10041000A370A37813F0010FDFD14FF4807121484E
:1004200001F0C8FA204A0021084601F015F91F4AD8
:100430000021012001F010F900F0A4FA00F01F02E1
:1004400020320F21012001F0F9F800F0F9FBA06043
:10045000C823E360B4232380A57815F0040516D1E2
:10046000E168A06800F02EF9A8B1A37823F0010399
:10047000A370A37813F0010FB8D0AEE70423A370E4
:100480000325AAE7A37843F00103A370C1E704237F
:10049000A3700325A1E7A37843F00103A370E8E765
:1004A000A41D000800080048BC1D0008C81D000865
:1004B00010B5274C4FF4006300221146204601F08E
:1004C00088FA4FF4806300221146204601F081FA39
:1004D0004FF4007300221146204601F07AFA4FF4DF
:1004E000807300221146204601F073FA0223002295
:1004F00001214FF0904001F06CFA012300221946CF
:100500004FF0904001F065FA04F5806480230022EA
:100510000121204601F05DFA4FF480730022012191
:10052000204601F056FA02214FF0904001F042FAC5
:1005300001214FF0904001F03DFA8021204601F06A
:1005400039FA4FF48071204601F034FA10BD00BF33
:100550000004004808B5FFF7ABFF084800F036FA82
:10056000074800F033FA074800F012F8064800F098
:100570000FF8064800F00CF808BD00BFD01D0008B9
:10058000041E0008DD020008B9030008AD010008E0
:1005900030B5334B1D781F2D03D80024A6462346C3
:1005A00003E000203AE00133DBB21F2B37D803EB26
:1005B00043022C4901EBC2025268824206D0002C51
:1005C000F1D1002AEFD19E460124ECE7254A03EB46
:1005D0004301CC0002EBC10100201053887049692F
:1005E0000968888020494B5501351D490D700EEB77
:1005F0004E0102EBC102128A5AB91C490A88013223
:1006000092B20A800EEB4E0E164901EBCE0EAEF8FA
:10061000102003EB4303134800EBC30030BDE4B1EB
:10062000104B0EEB4E02D40003EBC20250600021CF
:10063000195391705069006881800B4901F805E0F9
:10064000013507490D7009480188013189B20180DF
:1006500011820EEB4E0E1046E0E70020DEE700BFF1
:100660007D18002050060020500900207A18002034
:10067000002301E00133DBB20E4A12789A4217D907
:100680009C460D4AD25CFD2AF4D802EB42020B498B
:1006900001EBC20252688242ECD1074BFE2203F802
:1006A0000C20074A136843F00103136001207047D0
:1006B000002070477D1800205009002050060020BF
:1006C0007018002038B504460D4600F0B9FA031B37
:1006D000A04200D2013BAB4201D9012038BD00202D
:1006E000FCE7000038B5134B1D78002403E0013D02
:1006F000EDB20134E4B2E5B10123A3400E4909682B
:100700000B42F6D004EB44018B000C4919448B6872
:10071000013B8B60002BEAD1084904EB44008300C5
:100720000B445868986004EB44029300CB589847F8
:10073000DDE738BD781800207418002090050020EF
:1007400010B5002423E004EB4403DA00224B1344E9
:1007500000215960214AFF20105504EB4402D000CB
:100760001F4A024451601F4A02EBC400586104EB67
:10077000440399001C4B0B4442F83430C4EB041280
:10078000D3001A49194400F035F90134E4B21F2CA2
:10079000D9D90023164A13600F2B08D803EB430165
:1007A0008A001449002088500133DBB2F4E70023AB
:1007B000114A1370114A1370114A1370202000F06F
:1007C000B7F800F051FA00F0E1F900F0DFF800F0BE
:1007D000FFFEFFF7BFFE10BD5006002050090020AD
:1007E0001000002090040020100300207009002059
:1007F00074180020900500207D1800207C1800202F
:100800007818002070B5FFF79BFF234B00221A8059
:100810001CE00134E4B2B44213D2204B1D5D05EB61
:1008200045031F4800EBC300436898470328F0D1F5
:1008300005EB45051A4B03EBC5056868FFF718FF84
:10084000E7E7184B1B6813F0010F03D1164B1E7816
:100850000024E0E7144A1178104A525CFE2A03D0C3
:1008600099B10139C9B2F7E74A1CD2B205E0541E6A
:100870000A48855C05550132D2B2B242F7D3013E37
:10088000064AFF209055F6B2EAE7074A167023F0B1
:100890000103044A1360D9E77A18002050090020A8
:1008A00050060020701800207D180020002343808F
:1008B00083800280816070478388B0F800C0634500
:1008C0000BD24288134493FBFCF20CFB1233826878
:1008D0009BB2D154838801338380704743888288D8
:1008E0001344028893FBF2FC02FB1C3382689BB228
:1008F000D15483880288934202D0013383807047A9
:100900004388013393FBF2F102FB113343807047BC
:10091000034681684288885C0132198892FBF1FCA9
:1009200001FB1C225A809A88013A9A807047000085
:10093000014B1860704700BF801800200F4B1B68E8
:1009400003EB8300C0EB001003EB4010C0EBC000D2
:10095000C0EB00401B0C44F2A71203FB02F2084B51
:1009600003EA0243184410EBD23002D4034B186060
:10097000704700F100400130F8E700BF8018002008
:100980000000FF7F08B500F06BF908BD10B5094CF9
:10099000094B236009480A4B186040220949FFF7B8
:1009A00085FF402208492068FFF780FF00F0E8F843
:1009B00010BD00BF041900200C19002018190020D8
:1009C00008190020C41800208418002010B504461F
:1009D0000AE0074B1868028883889A42F9D00134EC
:1009E000FFF76AFF00F00CF821780029F1D110BD63
:1009F0000819002008B578220068FFF757FF08BDE6
:100A00000C4B1B6813F0100F00D0704710B543F06B
:100A10001003084A1360084B1868FFF779FF014676
:100A2000064B1870064C204601F01FF9204601F0D5
:100A300012F910BD70180020081900202519002097
:100A40000044004010B54FF04023D3F8003413F0B9
:100A5000200F06D04FF04023D3F81C3413F0200FA2
:100A60001AD14FF04023D3F8003413F0800F1DD07B
:100A70004FF04023D3F81C3413F0800F16D0124BE4
:100A8000186883889BB9114801F0EAF8104A136886
:100A900023F01003136009E00C4801F0EAF8C1B23A
:100AA0000C4B19700C4B1868FFF718FF10BDFFF7BF
:100AB0002FFF0146094B1870044C204601F0D5F871
:100AC000204601F0C8F8F1E7081900200044004072
:100AD0007018002024190020041900202519002076
:100AE00038B50546262001F03DF940F6113001F0F9
:100AF00047F80423002202214FF0904000F069FFE4
:100B00000823002202214FF0904000F062FF0823EA
:100B1000012211464FF0904000F07DFF0422072192
:100B20004FF0904000F092FF082207214FF09040D4
:100B300000F08CFF114C2946204601F037F80821BF
:100B4000204601F05DF80021204601F062F80C21FA
:100B5000204601F06AF80021204601F060F80021EB
:100B6000204601F068F8204601F07AF8204601F0AE
:100B70006DF8204601F065F838BD00BF0044004024
:100B800008B54FF46140FFF7ABFF08BD10B582B068
:100B9000042001F0CBF8244801F0C0F801F0DAF8A5
:100BA00001F0D0F8022000F0A1FF00F0DFFE0420E9
:100BB00000F0E4FE00F0ECFE00F0F2FE00240194F0
:100BC0000094234628220421022000F0C5FF20467D
:100BD00000F08CFF4FF4186000F0D2FF40F6811057
:100BE00000F0CEFF40F6821000F0CAFF40F68310FE
:100BF00000F0C6FF40F6841000F0C2FF4FF44060E2
:100C000000F0BEFF032000F09DFF204600F04AFFE9
:100C1000064B074A1360074A1360074A1360074BE5
:100C20001C6002B010BD00BF8038010000B4C404D5
:100C300000000020040000200800002028190020E7
:100C4000014B1868704700BF2819002008B5034AF7
:100C5000136801331360FFF745FD08BD2819002014
:100C600008B5FFF76BFE08BD08B500F097FF08BD9B
:100C700038B50446837863F07F0383700388002BC4
:100C800000F09480D42B00F294844D2BC0F091841A
:100C90004D3B872B00F28D84DFE813F090008B042E
:100CA0008B048B048B048B048B048B048B048B04CC
:100CB0008B048B048B048B048B048B048B048B04BC
:100CC0008B048B048B048B048B048B048B048B04AC
:100CD0008B048B048B048B048B04B1008B048B047A
:100CE0008B04D7008B048B048B04FD008B048B04D6
:100CF0008B0423018B048B048B0449018B04630157
:100D00008B048B048B048B048B048B047E018B047B
:100D10008B049B018B048B04B5018B048B048B0427
:100D20008B048B048B048B048B048B04D0018B0409
:100D30008B048B048B048B048B04F1018B048B04D8
:100D40008B048B048B048B048B048B048B04870231
:100D50008B048B048B048B048B048B048B048B041B
:100D60008B048B04E6028B048B0418038B04400372
:100D70008B048B048B0463038B048B048B048B0424
:100D80008B048B048B048B04B3038B048B048B04C4
:100D90008B048B048B048B04F1038B048B042004E1
:100DA0008B048B043D048B048B045A04FFF748FF2B
:100DB000A0604FF4FA73E3604D232380A57815F00B
:100DC000040540F06981E168A068FFF77BFC00281A
:100DD00000F06681A37823F00103A370A37813F0D9
:100DE000010F40F0EB8300221146302000F00CFD93
:100DF000FFF726FFA0600523E3606C232380A5781E
:100E000015F0040540F05181E168A068FFF75AFC35
:100E1000002800F04E81A37823F00103A370A3788B
:100E200013F0010F40F0CA8300220121302000F0AE
:100E3000EBFC00221146302000F0E6FCFFF700FF3B
:100E4000A0600523E36070232380A57815F00405D6
:100E500040F03481E168A068FFF734FC002800F01E
:100E60003181A37823F00103A370A37813F0010F5D
:100E700040F0A48300220121302000F0C5FC0022B4
:100E80001146302000F0C0FCFFF7DAFEA060052319
:100E9000E36074232380A57815F0040540F01781E2
:100EA000E168A068FFF70EFC002800F01481A37829
:100EB00023F00103A370A37813F0010F40F07E83A9
:100EC00000220121302000F09FFC0022114630203A
:100ED00000F09AFCFFF7B4FEA0600523E3607823DE
:100EE0002380A57815F0040540F0FA80E168A06839
:100EF000FFF7E8FB002800F0F780A37823F0010358
:100F0000A370A37813F0010F40F058830022012151
:100F1000202000F079FC00221146202000F074FC13
:100F2000FFF78EFEA0600123E3607C232380A57879
:100F300015F0040540F0DD80E168A068FFF7C2FB12
:100F4000002800F0DA80A37823F00103A370A378CF
:100F500013F0010F40F03283AD4B00221A807E2344
:100F60002380A57815F0040540F0CC8000222821CC
:100F7000A74800F09BFC022840F2C880A37823F029
:100F80000103A370A37813F0010F40F01783A04B67
:100F900000221A8085232380A57815F0040540F0EF
:100FA000BA80002214219A4800F080FC022840F206
:100FB000B680A37823F00103A370A37813F0010F88
:100FC00040F0FC82FFF73CFEA0600123E360882331
:100FD0002380A57815F0040540F0A680E168A0689C
:100FE000FFF770FB002800F0A380A37823F0010333
:100FF000A370A37813F0010F40F0E082844B00222D
:101000001A808B232380A57815F0040540F0958085
:1010100000220C217E4800F049FC022840F2918019
:10102000A37823F00103A370A37813F0010F40F01D
:10103000C582774B00221A8095232380A57815F06E
:10104000040540F0838000220621714800F02EFC48
:1010500002287FD9A37823F00103A370A37813F0AB
:10106000010F40F0AB826B4B1B78002B00F08B80A4
:101070000023684A1370664A13809C232380A57856
:1010800015F004056BD1634B5B78002B6BD1614B82
:10109000997841F0800167E00423A37003258DE275
:1010A000A37843F00103A37098E60423A3700325FB
:1010B00084E2A37843F00103A370B0E60423A37095
:1010C00003257BE2A37843F00103A370CDE604235C
:1010D000A370032572E2A37843F00103A370EAE64C
:1010E0000423A370032569E2A37843F00103A370EE
:1010F00007E70423A370032560E2A37843F001030C
:10110000A37024E70423A370032557E2A37843F0D8
:101110000103A37036E70423A37003254EE2A378EE
:1011200043F00103A37048E70423A370032545E2BD
:10113000A37843F00103A3705BE70423A3700325A6
:101140003CE2A37843F00103A3706DE70423A3708E
:10115000032533E2A37843F00103A3707EE7042361
:10116000A37003252AE240210022294800F09EFBBB
:10117000022847D9A37823F00103A370A37813F0C2
:10118000010F40F01B82234BDB782BB9214B5B799D
:1011900013B9204BDB7953B31E4A0023D37053712C
:1011A000D3711B4A1380A6232380A57815F004056C
:1011B00036D1184B1B79002B36D00A23154A91796A
:1011C000002918BF43F00103127A7AB304210022E8
:1011D00019430F4800F06AFB022829D9A37823F0AD
:1011E0000103A370A37813F0010F40F0E7810A4BCD
:1011F00000221A70084B1B78012B1ED9074B0022C6
:101200001A709AE1A37843F00103A370B6E700BF18
:101210002C190020441900203D1A0020351A002006
:101220000423A3700325C9E10823C7E70021CEE703
:10123000A37843F00103A370D4E7884B00221A700F
:10124000A2E0874B1B7803EB8301864B03EBC103C2
:1012500013445B7A002B7ED0824B01221A70824BA2
:1012600000221A80B1232380A57815F0040540F0F0
:1012700095807B4B1B78002B00F094804021774BAE
:101280001B78194349B261F07F010022C9B2764848
:1012900000F00CFB022840F28780A37823F00103C2
:1012A000A370A37813F0010F40F088816C4B1B787A
:1012B0006A4A117803EB83026A4B03EBC2030B44C7
:1012C00000225A72684B1A80B4232380A57815F047
:1012D00004056ED1624B1B78604A117803EB8302E0
:1012E000604B03EBC2030B44012293F859105E4894
:1012F00000F0DCFA022860D9A37823F00103A37080
:10130000A37813F0010F40F0598154490A78013253
:101310000A7003F07F03A370B6232380A37813F031
:1013200004054FD113F0800F50D143F00103A37097
:10133000A37813F0010F40F04181484B1978484BD6
:101340001B7803EB8302474B03EBC2030B445B7A2E
:101350000BB12729AAD9A37803F07F03A370BA237E
:101360002380A37813F0040534D113F0800F35D116
:1013700043F00103A370A37813F0010F40F01E8126
:10138000364A137801331370344B1A78272A7FF6C4
:1013900058AF334A1378013313702BE70423A3703B
:1013A00003250BE100216AE7A37843F00103A37052
:1013B00077E70423A370032500E1A37843F001033A
:1013C000A3709DE70423A3700325F7E023F0010336
:1013D000A370ADE70423A3700325EFE023F001031E
:1013E000A370C8E71F4A134493F8A930002B00F0FC
:1013F0008C80134601221A701B4B00221A80C323D3
:101400002380A57815F004051FD1184B1978C90061
:1014100041F04001002201F0F801134800F046FAC3
:10142000022816D9A37823F00103A370A37813F040
:10143000010F40F0C3800D4B1A780A4B1344002271
:1014400083F8A9200A4B1A603AE00423A37003250D
:10145000B4E0A37843F00103A370E7E73C1A00204F
:101460003D1A0020441900202C190020351A0020B4
:10147000381A0020524B00221A80CB232380A578F3
:1014800015F0040574D14F4B19784F4B1A684F4B28
:1014900003EBC1031344012293F8B110484800F054
:1014A00005FA022868D9A37823F00103A370A37872
:1014B00013F0010F40F08280434A13680133136038
:1014C000414B1B68072BD5DD3E4A1378013313705F
:1014D000A37803F07F03A370CE232380A37813F0B7
:1014E00004054ED113F0800F4FD143F00103A370D8
:1014F000A37813F0010F61D1324B1A78334B1344A8
:1015000093F8A9300BB1072A95D9A37803F07F038C
:10151000A370D1232380A37813F0040539D113F0ED
:10152000800F3AD143F00103A370A37813F0010FA9
:1015300044D1244A137801331370224B1B78072BB4
:101540007FF650AFA37803F07F03A370D4232380EA
:10155000A37813F0040524D113F0800F25D143F0B4
:101560000103A370A37813F0010F3FF47CAD25E0D5
:101570000423A370032521E0A37843F00103A370A3
:1015800095E70423A370032518E023F00103A3705B
:10159000AEE70423A370032510E023F00103A3703A
:1015A000C3E70423A370032508E023F00103A3701D
:1015B000D8E70823A370002323800325284638BDDD
:1015C0002C190020351A0020381A00204419002058
:1015D00008B500F0B7F80248FEF7DAFF08BD00BF13
:1015E000710C0008002018E0104A00EB800C4FEA54
:1015F000CC01114419444FF0200C81F859C000EB84
:10160000800C4FEACC010A441A44012151720B4468
:10161000DBB2272BE8D90130C0B2012801D8002362
:10162000F7E7024B01221A70704700BF44190020EF
:10163000014B01221A70704744190020054B00EB42
:10164000800C03EBCC0C8C448CF8592001238CF8D3
:10165000093070474419002070B54FF0000E03E0C8
:101660000EF1010E5FFA8EFE12F80E30002BF7D14C
:101670001EE00C44184D85FB04654FEAE47CCCEB7E
:10168000251C0CEB8C0CA4EBCC0CD65C134C00EBA7
:10169000800504EBC505654485F8596000EB8005BD
:1016A00004EBC504A44401248CF809402344DBB2B4
:1016B0009E4510D91C46C518272DDADD4D1C064E57
:1016C00086FB0516E917C1EB261101EB8101A5EB9D
:1016D000C101C9B2CDE770BD6766666644190020D6
:1016E000174B187840BB5B794BBB154AD07928BBA8
:1016F0008446BCF1010F12D80246272A0AD80CEB07
:101700008C03D9000E4B0B4413445B7ABBB90132F6
:10171000D2B2F2E70CF1010C5FFA8CFCE9E7034668
:10172000072B07D8064A1A4492F8A9203AB9013380
:10173000DBB2F5E70120704700207047184670477C
:101740004419002010B54FF48063002201214FF0AE
:10175000904000F03EF94FF48053002201214FF0F9
:10176000904000F036F9274C022300220121204648
:1017700000F02FF9022303220021204600F04BF94C
:10178000042300220121204600F023F90423032230
:101790000021204600F03FF90823002201212046C5
:1017A00000F017F9082303220021204600F033F946
:1017B000102300220121204600F00BF91023032200
:1017C0000021204600F027F94FF480614FF090404F
:1017D00000F0EEF84FF480514FF0904000F0EAF83E
:1017E0000221204600F0E6F80421204600F0E2F84D
:1017F0000821204600F0DEF81021204600F0DAF83B
:1018000010BD00BF0004004838B504460D464AB379
:101810004FF480514FF0904000F0CAF814F0100FD0
:1018200027D00221204800F0C3F814F0200F25D063
:1018300004211D4800F0BCF814F0400F23D008210B
:10184000194800F0B5F814F0800F21D11021164886
:1018500000F0B0F80DB34FF480614FF0904000F00D
:10186000A7F838BD4FF480514FF0904000F0A2F837
:10187000D4E702210C4800F09DF8D6E704210A487D
:1018800000F098F8D8E70821074800F093F8DAE765
:101890001021054800F08CF8DCE74FF480614FF030
:1018A000904000F087F8DCE700040048F8B50446F3
:1018B000837863F07F038370038843B18C2B34D02B
:1018C0000823A3700023238003252846F8BD244F56
:1018D0003970244E327001F0F000234D2870012140
:1018E000FFF792FF327800212878FFF78DFF3278DA
:1018F00001212878FFF788FF38780001C0B22870EE
:1019000032780121FFF780FF327800212878FFF735
:101910007BFF327801212878FFF776FFFFF790F9F7
:10192000A0600123E3608C232380A57815F00405D3
:101930000DD1E168A068FEF7C5FE60B1A37823F081
:101940000103A370A37813F0010FB9D0BDE70423FE
:10195000A3700325B9E7A37843F00103A370F1E76F
:101960003F1A00203E1A0020401A0020024A136845
:1019700043F480731360704700200240034A1368E9
:1019800023F0070318431060704700BF0020024097
:10199000024A136843F480631360704700200240DA
:1019A000024A136843F4007313607047002002403A
:1019B0008161704709048161704700690840704780
:1019C000436901EA030221EA030141EA024181611C
:1019D00070472DE9F0410568C46800264FF0030EFA
:1019E00043FA06F7FF070FD577000EFA07FC6FEAF8
:1019F0000C0C01FA07F80CEA05050CEA040402FADB
:101A000007F748EA05053C430136102EE8D105608A
:101A1000C460BDE8F081012941680CBF19439943B6
:101A2000F0B5416081680024032643FA04F5ED0710
:101A300007D5650006FA05F721EA070102FA05F560
:101A400029430134102CF0D18160F0BDF0B5076A54
:101A5000466A00234FF00F0C42FA03F4E50707D55E
:101A60009D000CFA05F427EA040701FA05F52F4357
:101A70000133082BF0D14FF00F0C42FA03F4E407C6
:101A80000AD503F18044083CA4000CFA04F526EAC8
:101A9000050601FA04F426430133102BEDD1076249
:101AA0004662F0BD032808D8DFE800F0160F0802F0
:101AB0000D4A136813F00C0FFBD170470A4A1368E4
:101AC000C3F38103012BFAD17047074A1368C3F3AC
:101AD0008103022BFAD17047034A1368C3F38103D1
:101AE000032BFAD1704700BF0810024006280AD81D
:101AF000DFE800F0040A0F14191B1D000D4A1368DB
:101B000043F08073136070470A4A136843F48033CC
:101B1000F8E7084A136843F48073F3E7054A13684B
:101B200043F00103EEE7044AF9E7044AF7E7044A01
:101B3000F5E700BF001002409010024094100240F0
:101B400098100240034A136823F0030318431060FF
:101B5000704700BF0810024030B5049C039D640626
:101B600044F0807444EA45542043184340EA02207C
:101B70000139024B40EA0110186030BD0C100240E0
:101B8000430903F1804303F5043300F01F02196891
:101B9000012090400843186070470000024A136813
:101BA00043F0040313607047000806500F4A904248
:101BB00010B54FEA510306D10D4A12681344B3FB26
:101BC000F1F1C16010E00B4C0B4AA0421268F5D154
:101BD000B2FBF1F001FB102203EB0223B3FBF1F1A6
:101BE000064B01EB0021196010BD00BF0038014019
:101BF0000800002000800040040000200C8000400D
:101C0000036808290CBF23F4805343F48053036016
:101C10007047436823F44053194341607047036899
:101C200023F4C063194301607047036823F00C0379
:101C3000194301607047836823F44073194381603E
:101C40007047036843F0010303607047036843F083
:101C5000200303607047036843F08003036070470C
:101C6000036823F0800303607047C1F308018162B9
:101C70007047406AC0F308007047FEE770470000F5
:101C800038B51B491B4C1C480022531883421BD3F8
:101C90001A4A002193421BD3194A1A4C13681A4D51
:101CA00043F400731360536F43F470035367AC4203
:101CB00011D3164C164DAC4211D3FEF7A3FD154CB3
:101CC000154DAC420FD338BD135953500432DCE7E5
:101CD00019600433DEE754F8043B9847E7E754F80B
:101CE000043B9847E7E754F8043B9847E9E700BF0F
:101CF00000000020081E00080C000020441A0020EC
:101D000014ED00E0081E0008081E0008081E000868
:101D1000081E0008081E0008081E0008024B20F0DC
:101D20007F401860704700BF14E000E0044A136869
:101D300000F0040023F0040303431360704700BF66
:101D400010E000E0024A136843F00203136070479A
:101D500010E000E0024A136843F00103136070478B
:101D600010E000E0054B420903EB820300F01F0086
:101D7000012202FA00F01860704700BF00E100E0A5
:101D8000746573745F62757A7A6572206279207007
:101D900072657373696E67205357322D5357350A36
:101DA000000000006C636420284973204A3233200D
:101DB000636F72726563743F290A000045434520D2
:101DC0003431343000000000726F636B7321000007
:101DD0000A7372632F6C63645F6170702E632C20D2
:101DE0006275696C74206F6E2041707220203920FA
:101DF000323032312061742031353A35393A33345A
:081E00000A0000000A0D0000B9
:0C1E080000093D0000093D0000093D00FC
:0400000508001C8152
:00000001FF
